:020000040000FA
:100000000C9462000C948A000C948A000C948A0070
:100010000C948A000C948A000C948A000C948A0038
:100020000C948A000C948A000C948A000C948A0028
:100030000C948A000C948A000C948A000C948A0018
:100040000C9431080C948A000C94FF070C94D90787
:100050000C948A000C948A000C948A000C948A00F8
:100060000C947B080C948A000000000024002700F8
:100070002A0000000000250028002B0000000000DE
:1000800023002600290004040404040404040202DA
:100090000202020203030303030301020408102007
:1000A0004080010204081020010204081020000012
:1000B0000008000201000003040700000000000027
:1000C00000009A0911241FBECFEFD8E0DEBFCDBFDC
:1000D00013E0A0E0B1E0E2E0F1E202C005900D9291
:1000E000A430B107D9F724E0A4E0B3E001C01D9229
:1000F000A53FB207E1F710E0C2E6D0E004C02197C7
:10010000FE010E947910C136D107C9F70E944D0A3D
:100110000C947F100C94000096E0899FD00111246C
:10012000AA57BB4F90967C936E935F9791E0919600
:100130009C939197E091F304F091F4049091F20470
:10014000992339F0309751F0811108C08091A204B1
:100150000994309719F05C968C91FACF0895CF925C
:10016000DF92EF92FF920F931F9396E0899FF00129
:100170001124EA57FB4F11A2278D30A12130310500
:1001800051F178F02230310509F451C023303105A6
:1001900009F452C01F910F91FF90EF90DF90CF9024
:1001A00008956623B9F361E070E00E948C002FB7D8
:1001B000F8948091CD039091CE03A091CF03B0919C
:1001C000D0032FBF8093DE049093DF04A093E0045C
:1001D000B093E104DFCF9FB7F894C090CD03D090E7
:1001E000CE03E090CF03F090D0039FBF0091DE04D8
:1001F0001091DF042091E0043091E104C01AD10A8B
:10020000E20AF30A0091F0041091F10430E020E0DA
:100210000C151D052E053F0550F462E070E01F919E
:100220000F91FF90EF90DF90CF900C948C006111B4
:10023000B1CF63E070E0F3CF70E060E0F0CF0895FD
:100240000895AF92BF92CF92DF92EF92FF920F93F9
:100250001F93CF93DF936C017B018B01040F151F5C
:10026000EB015E01AE18BF08C017D10759F06991C4
:10027000D601ED91FC910190F081E02DC601099528
:10028000892B79F7C501DF91CF911F910F91FF90D5
:10029000EF90DF90CF90BF90AF900895FC01538D09
:1002A000448D252F30E0842F90E0821B930B541750
:1002B00010F0CF96089501970895FC01918D828DDD
:1002C000981761F0A28DAE0FBF2FB11D5D968C9176
:1002D000928D9F5F9F73928F90E008958FEF9FEFB5
:1002E0000895FC01918D828D981731F0828DE80F71
:1002F000F11D858D90E008958FEF9FEF0895FC012B
:10030000918D228D892F90E0805C9F4F821B9109F7
:100310008F739927089581ED93E00E947F0121E07A
:10032000892B09F420E0822F089580E090E0892B4A
:1003300029F00E948B0181110C9400000895FC01AA
:10034000A48DA80FB92FB11DA35ABF4F2C91848D36
:1003500090E001968F739927848FA689B7892C9393
:10036000A089B1898C91837080648C93938D848DE6
:10037000981306C00288F389E02D80818F7D8083E9
:100380000895EF92FF920F931F93CF93DF93EC01A9
:1003900081E0888F9B8D8C8D98131AC0E889F9892C
:1003A000808185FF15C09FB7F894EE89FF8960832F
:1003B000E889F98980818370806480839FBF81E0B0
:1003C00090E0DF91CF911F910F91FF90EF900895F2
:1003D000F62E0B8D10E00F5F1F4F0F731127E02ECD
:1003E0008C8D8E110CC00FB607FCFACFE889F98905
:1003F000808185FFF5CFCE010E949F01F1CFEB8D6B
:10040000EC0FFD2FF11DE35AFF4FF0829FB7F894D8
:100410000B8FEA89FB8980818062CFCFCF93DF93F6
:10042000EC01888D8823B9F0AA89BB89E889F9890C
:100430008C9185FD03C0808186FD0DC00FB607FC41
:10044000F7CF8C9185FFF2CF808185FFEDCFCE0174
:100450000E949F01E9CFDF91CF910895833081F011
:1004600028F4813099F08230A9F008958730A9F0FE
:100470008830C9F08430B1F4809180008F7D03C052
:10048000809180008F7780938000089584B58F7766
:1004900084BD089584B58F7DFBCF8091B0008F77A8
:1004A0008093B00008958091B0008F7DF9CFCF93F5
:1004B000DF93282F30E0F901E255FF4F8491F901D5
:1004C000E656FF4FD491F901EA57FF4FC491CC2370
:1004D000A1F081110E942E02EC2FF0E0EE0FFF1F21
:1004E000E458FF4FA591B491EC91ED2381E090E0A9
:1004F00009F480E0DF91CF91089580E090E0FACF99
:10050000862F0C9457021F93CF93DF93282F30E050
:10051000F901E255FF4F8491F901E656FF4FD4915E
:10052000F901EA57FF4FC491CC23A9F0162F81118E
:100530000E942E02EC2FF0E0EE0FFF1FEE58FF4F4F
:10054000A591B4918FB7F894EC91111108C0D09592
:10055000DE23DC938FBFDF91CF911F910895DE2BB7
:10056000F8CF862F642F0C948302CF93DF9390E013
:10057000FC01E656FF4F24918A579F4FFC0184915E
:100580008823C9F090E0880F991FFC01E859FF4FBC
:10059000A591B491FC01EE58FF4FC591D491611122
:1005A0000DC09FB7F8948C91209582238C938881FD
:1005B000282328839FBFDF91CF910895623051F4A3
:1005C0009FB7F8943C91822F809583238C93E88188
:1005D0002E2BEFCF8FB7F894EC912E2B2C938FBF4F
:1005E000EACF862F642F0C94B5026F927F928F9280
:1005F0009F92AF92BF92CF92DF92EF92FF920F93B2
:100600001F93CF93DF9381E08093F2048FB7F89428
:100610004091CD035091CE036091CF037091D003F0
:100620008FBF8091E2049091E304A091E404B09123
:10063000E504481B590B6A0B7B0B8091EE049091EB
:10064000EF04B0E0A0E084179507A607B70708F00D
:100650001DC1C0E08091EC04C81760F4E091E8048B
:10066000F091E904EC0FF11D62E080810E94B50277
:10067000CF5FF0CF712C812C912C54018394809109
:10068000ED04781608F05FC0072D10E0E091EA0451
:10069000F091EB04E00FF11F61E080810E94B50250
:1006A000E091EA04F091EB04E00FF11F60E080813B
:1006B0000E948302D501C401072C04C0880F991F32
:1006C000AA1FBB1F0A94D2F76C017C01E094F0943E
:1006D000612C8091EC046816F8F4C62DD0E0E0910E
:1006E000E804F091E904EC0FFD1F80810E9457029D
:1006F0002496CC0FDD1FCA57DB4F892B41F488812C
:1007000099818C299D29998388836394E2CF88817C
:1007100099818E219F21F7CFE091EA04F091EB04BB
:10072000E00FF11F61E080810E9483028091EA0462
:100730009091EB04080F191F60E0F80180810E947E
:10074000B50273949CCFC6E8D4E0FE018FEF9FEF13
:10075000278D30A1232B21F4148E968F858F11A223
:10076000369624E0E23CF20799F7F12C96E0D92E78
:100770008091EC04F81608F050C0E12C0F2D10E029
:10078000000F111F02571B4F2091ED04E21608F0D5
:1007900042C0F801608171810E2C02C07695679588
:1007A0000A94E2F7F29E900111242E0D311DE6E825
:1007B000F4E080E0458D568D2417350709F46AC0B2
:1007C0008F5F36968A30B1F760FF23C0E6E8F4E029
:1007D00090E080E0448D411117C0E091E604F09173
:1007E000E704E20FF31F4081D89EF001D99EF00D7F
:1007F0001124EA57FB4F448F368F258F10A2178E96
:1008000061E00E94AF0005C0019636968A309105DE
:1008100009F7E394B9CFF394ABCF80E099A191119C
:10082000892F2696F4E0C23CDF07C1F79FB7F89402
:100830004091CD035091CE036091CF037091D003CE
:100840009FBF4093E2045093E3046093E4047093E9
:10085000E5048823D9F08091A7048823B9F080911A
:10086000A5049091A604019789F48091A204DF91D8
:10087000CF911F910F91FF90EF90DF90CF90BF909D
:10088000AF909F908F907F906F9008951092F20498
:1008900080E0EDCF6170B5CF8E50806480937C0096
:1008A00080917A00806480937A0080917A0086FD3E
:1008B000FCCF809178009091790008953FB7F8942B
:1008C0008091B7039091B803A091B903B091BA0396
:1008D00026B5A89B05C02F3F19F00196A11DB11D9B
:1008E0003FBFBA2FA92F982F8827BC01CD01620FD7
:1008F000711D811D911D42E0660F771F881F991F92
:100900004A95D1F708958F929F92AF92BF92CF925E
:10091000DF92EF92FF924B015C010E945E046B013B
:100920007C010E945E046C197D098E099F09683E56
:10093000734081059105A8F321E0821A9108A1086E
:10094000B10888EEC80E83E0D81EE11CF11C8114AA
:100950009104A104B10429F7FF90EF90DF90CF90AC
:10096000BF90AF909F908F90089520916C03260FB9
:100970003327331F21323105ECF420919003FC0121
:1009800090E080E0243069F082E00895A0916C034B
:100990002191AC01445B5C4FA40FB52FB11D2C938A
:1009A0000196861798F380916C03680F60936C032F
:1009B00080E0089581E008951092900381E0809393
:1009C00092031092910361E082E10E94830261E050
:1009D00083E10E948302E9EBF0E080818E7F8083D7
:1009E00080818D7F808388E48093B80085E4809344
:1009F000BC000895CF93DF9391E090934B0388233D
:100A0000B9F0C091B800D091BA008091BC008A7B47
:100A10008093BC0060E082E10E94830260E083E199
:100A20000E9483020E94DC04D093BA00C093B800F5
:100A3000DF91CF9108950895E091C2038091C103A1
:100A4000E81730F4F0E0EA5DFC4F808190E0089513
:100A50008FEF9FEF08959091C2038091C1032FEF14
:100A60003FEF981748F4E92FF0E0EA5DFC4F208152
:100A700030E09F5F9093C203C90108958091C10344
:100A80009091C203891B990B0895CF92DF92EF9248
:100A9000FF920F931F93CF93DF937C01CB018A01C9
:100AA00020912503222389F0EB016B01C40ED51E92
:100AB000CC15DD0569F06991D701ED91FC910190AC
:100AC000F081E02DC7010995F3CF642F0E94B50492
:100AD000C801DF91CF911F910F91FF90EF90DF90B0
:100AE000CF900895CF93DF931F92CDB7DEB7698380
:100AF000209125032223F9F02091BF03203258F0E2
:100B000021E030E0FC013383228390E080E00F900D
:100B1000DF91CF9108958091C003E82FF0E0EB5F63
:100B2000FC4F998190838F5F8093C0038093BF03B4
:100B300081E090E0ECCF61E0CE0101960E94B50427
:100B4000F7CFCF92DF92EF92FF920F931F93CF9345
:100B5000DF93FC01C48121E020932503C0930403AB
:100B60001092C0031092BF038385682B8EE694E039
:100B70000E947205D091BF03D13208F092C00E944A
:100B80005E046B017C0180919003811165C082E05D
:100B90008093900381E0809392038FEF80938F0383
:100BA0001092B403D093B303A5E0B3E0E3E9F3E01C
:100BB00080E0D81385C01092B5038091B503CC0FA7
:100BC000C82BC093B50380919103813009F07CC09C
:100BD000109291030E945E046B017C018091B50329
:100BE0008093BB008091470390914803A0914903F3
:100BF000B0914A03892B8A2B8B2B99F00E945E04BB
:100C000000914703109148032091490330914A0312
:100C10006C197D098E099F090617170728073907E0
:100C2000E0F18091BC0083FDD9CF85EC8093BC00BE
:100C30000E945E046B017C0180919003823009F474
:100C400045C080918F038F3F61F180918F03803287
:100C500041F180918F0325C0809147039091480313
:100C6000A0914903B0914A03892B8A2B8B2B09F45D
:100C70008ACF0E945E04009147031091480320919F
:100C8000490330914A036C197D098E099F090617A3
:100C900017072807390708F076CF809146030E948E
:100CA000FA041092C0031092BF0310922503DF9143
:100CB000CF911F910F91FF90EF90DF90CF9008950B
:100CC0009D9191938F5F75CF85EEB0CF8091470353
:100CD00090914803A0914903B0914A03892B8A2B34
:100CE0008B2B09F4A9CF0E945E0400914703109159
:100CF00048032091490330914A036C197D098E09FC
:100D00009F09061717072807390708F095CFC5CFA1
:100D1000089590E080E008950F931F93CF938C0186
:100D2000C62F0E94A1056C2F6460C8010E94A10516
:100D30006C2F6B7FC8010E94A10583EC90E00197A6
:100D4000F1F7CF911F910F9108950F931F93CF93B8
:100D5000DF938C01D62FC42F607F642B0E948C06FA
:100D600080E1D89FB00111246C2BC801DF91CF9195
:100D70001F910F910C948C0640E061E08AE794E0AB
:100D80000E94A5068BE39FE10197F1F70895CF93A9
:100D9000DF93CDB7DEB728970FB6F894DEBF0FBE4E
:100DA000CDBF98E0E0E0F1E0DE01119601900D92F8
:100DB0009A95E1F790918204961710F46FEF690FFE
:100DC000262F30E0220F331F41E050E04C0F5D1F13
:100DD000240F351FF9016081680F606840E08AE7E1
:100DE00094E028960FB6F894DEBF0FBECDBFDF911A
:100DF000CF910C94A50641E00E94A50681E090E009
:100E00000895FB0101900020E9F73197AF01461BDF
:100E1000570BDC01ED91FC910280F381E02D0994E8
:100E20008F929F92AF92BF920F931F93CF93DF93B6
:100E3000CDB7DEB7A1970FB6F894DEBF0FBECDBF1A
:100E400019A2423008F44AE08E010F5D1F4F842E34
:100E5000912CB12CA12CA50194010E945710E62FD2
:100E6000B901CA01EA3004F5E05DD801EE938D01C5
:100E7000232B242B252B79F790E080E0109729F085
:100E8000BD018AE794E00E940107A1960FB6F8948D
:100E9000DEBF0FBECDBFDF91CF911F910F91BF90ED
:100EA000AF909F908F900895E95CDFCFCF92DF9253
:100EB000EF92FF926C01990FEE08FF08F7FE16C043
:100EC00041E06DE28AE794E00E94A5066627772755
:100ED000CB016C197D098E099F094AE00E94100719
:100EE0000196FF90EF90DF90CF9008954AE0C70100
:100EF000B601FF90EF90DF90CF900C9410070C9408
:100F00000107CF930E94F502C82F64E670E080E0ED
:100F100090E00E948304CC23A9F36AE571E081ED9F
:100F200093E00E947F076C2F81ED93E00E94C10146
:100F30006AE671E081ED93E00E9401078C2FCF916A
:100F4000089585ED8093BC008091470390914803FC
:100F5000A0914903B0914A030796A11DB11D23E05A
:100F6000B695A795979587952A95D1F72091BC00BE
:100F700024FD03C0109290030895409147035091BF
:100F800048036091490370914A03452B462B472B38
:100F900069F30097A105B10541F02AE22A95F1F71E
:100FA00000C00197A109B109E1CF809146030C94DB
:100FB000FA041F920F920FB60F9211242F933F93B2
:100FC0004F935F936F937F938F939F93AF93BF9351
:100FD000EF93FF9381ED93E00E949F01FF91EF91CA
:100FE000BF91AF919F918F917F916F915F914F9141
:100FF0003F912F910F900FBE0F901F9018951F9249
:101000000F920FB60F9211242F938F939F93EF930C
:10101000FF93E091E103F091E2038081E091E70327
:10102000F091E80382FD1BC090818091EA038F5FFD
:101030008F732091EB03821741F0E091EA03F0E017
:10104000EF52FC4F958F8093EA03FF91EF919F91B0
:101050008F912F910F900FBE0F901F901895808148
:10106000F4CF1F920F920FB60F9211242F933F933C
:101070008F939F93AF93BF938091CD039091CE03B5
:10108000A091CF03B091D0033091B60323E0230F9A
:101090002D3758F50196A11DB11D2093B6038093FD
:1010A000CD039093CE03A093CF03B093D003809150
:1010B000B7039091B803A091B903B091BA03019618
:1010C000A11DB11D8093B7039093B803A093B903FA
:1010D000B093BA03BF91AF919F918F913F912F91A0
:1010E0000F900FBE0F901F90189526E8230F0296C1
:1010F000A11DB11DD2CF1F920F920FB60F921124D6
:101100002F933F934F935F936F937F938F939F930F
:10111000AF93BF93EF93FF938091B900887F8036A0
:1011200009F44AC0F0F5883209F4A7C018F58031F7
:1011300009F49BC0B8F4882309F4F9C0883009F495
:1011400094C0FF91EF91BF91AF919F918F917F914B
:101150006F915F914F913F912F910F900FBE0F9024
:101160001F901895883109F488C0803251F7809318
:101170008F0314C0803409F49DC040F48033B9F368
:101180008833F9F680938F0385ECB0C0803509F47D
:1011900085C0883509F496C0883499F60E94A10765
:1011A000D0CF883909F48CC038F5883729F050F44D
:1011B000883611F0803729F683E0809390031092EF
:1011C0008E0357C0883809F47BC0803919F0803805
:1011D00009F0B7CF80918E03803208F071C0E091A2
:1011E0008E0381E08E0F80938E038091BB00F0E030
:1011F000E259FC4F80833DC0803B39F0E0F4803AF7
:1012000009F479C0883A09F09CCF84E08093900378
:1012100010926D0310926C03E091BD03F091BE0338
:10122000099580916C0381110FC081E080936C035C
:1012300010924C0309C0803C09F4A6CF883C09F405
:10124000A3CF883B09F07DCFE0916D0381E08E0F45
:1012500080936D03F0E0E45BFC4F80818093BB00E2
:1012600090916D0380916C0329C08091B5038093A8
:10127000BB0085EC8093BC0064CF9091B403809157
:10128000B303981758F5E091B40381E08E0F809373
:10129000B403F0E0ED56FC4F8081E9CFE091B40358
:1012A00081E08E0F8093B4038091BB00F0E0ED5697
:1012B000FC4F80839091B4038091B3039817C8F2D8
:1012C00085E8D8CFE091B40381E08E0F8093B4031A
:1012D0008091BB00F0E0ED56FC4F8083809192033B
:1012E00081115CCF81E08093910384EA8093BC00FC
:1012F0001092900326CF85EC8093BC00109290034F
:1013000080918E03803230F4E0918E03F0E0E25958
:10131000FC4F108260918E0370E0E091BB03F0916E
:10132000BC038EE693E0099510928E030ACF1092CB
:101330008F0334CF1092D4031092D30388EE93E03E
:10134000A0E0B0E08093D5039093D603A093D70399
:10135000B093D8032CE031E03093D2032093D10333
:1013600025EC30E03093DE032093DD0324EC30E005
:101370003093E0032093DF0320EC30E03093E2036E
:101380002093E10321EC30E03093E4032093E30366
:1013900022EC30E03093E6032093E50326EC30E0C6
:1013A0003093E8032093E7031092EA031092EB03D3
:1013B0001092EC031092ED031092710410927004DD
:1013C0008093720490937304A0937404B093750493
:1013D0008EE191E090936F0480936E0410928804E4
:1013E00010928C0410928B0410928D048CE391E087
:1013F0009093870480938604E2EAF4E010821482DA
:1014000013821582369684E0EE3DF807B9F786E43C
:1014100091E09093E9048093E80482E491E0909352
:10142000EB048093EA0484E08093EC048093ED0461
:101430002AE431E03093E7042093E6042AE030E028
:101440003093EF042093EE0424EF31E03093F10465
:101450002093F0041092F4041092F3041092E2042A
:101460001092E3041092E4041092E5041092F20446
:1014700010927D0410927C0420E331E030937B04D1
:1014800020937A0497E290937E0490E190938304F2
:1014900080938404109285040895CF93DF9300D045
:1014A0001F92CDB7DEB7789484B5826084BD84B5D1
:1014B000816084BD85B5826085BD85B5816085BD4F
:1014C00080916E00816080936E0010928100809107
:1014D000810082608093810080918100816080938F
:1014E0008100809180008160809380008091B100B4
:1014F00084608093B1008091B00081608093B000DF
:1015000080917A00846080937A0080917A00826072
:1015100080937A0080917A00816080937A00809134
:101520007A00806880937A001092C100E091E10314
:10153000F091E20382E08083E091DD03F091DE032D
:101540001082E091DF03F091E0038FEC8083109232
:10155000E903E091E503F091E60386E08083E09102
:10156000E303F091E403808180618083E091E303F1
:10157000F091E403808188608083E091E303F0913F
:10158000E403808180688083E091E303F091E403C9
:1015900080818F7D80831092C2031092C1031092CC
:1015A000C0031092BF030E94DC048FE191E090938E
:1015B000BE038093BD0380E291E09093BC038093CF
:1015C000BB0310927F0480918404823018F098E06D
:1015D00090937F048093820462E370E080E090E067
:1015E0000E948304609185048AE794E00E94A1052B
:1015F00068EE73E080E090E00E94830460E38AE795
:1016000094E00E948C068BE496E40197F1F760E386
:101610008AE794E00E948C068BE496E40197F1F748
:1016200060E38AE794E00E948C0683E592E00197EC
:10163000F1F760E28AE794E00E948C0660917F04F3
:10164000606240E08AE794E00E94A50684E080930F
:10165000800440E06CE08AE794E00E94A5060E94C6
:10166000BC0682E08093810440E066E08AE794E073
:101670000E94A50640E062E08AE794E00E94A50689
:101680008BE39FE10197F1F788E08093850460E0A8
:101690008AE794E00E94A1051092CC031092CB033C
:1016A00025E1822E912C02E010E08AE7282E312CD1
:1016B00099E7A92EB12C8091CB039091CC03892B73
:1016C000E1F50E94BC0660E080E00E94C7066DE67E
:1016D00071E08AE794E00E947F0761E080E00E9469
:1016E000C7066EE771E08AE794E00E947F0762E038
:1016F0008CEF0E94C7066EE871E08AE794E00E94D2
:101700007F0763E08CEF0E94C70666E971E08AE715
:1017100094E00E947F070E948107813339F481E0C1
:1017200090E09093CC038093CB0307C0823309F001
:101730003BC21093CC030093CB038091CB039091D9
:10174000CC030197A9F50E94BC0660E080E00E94EE
:10175000C70663EA71E08AE794E00E947F0761E0D0
:1017600080E00E94C70664EB71E08AE794E00E9483
:101770007F0762E08CEF0E94C7066EEB71E08AE79C
:1017800094E00E947F0763E08CEF0E94C7066AEC3A
:1017900071E08AE794E00E947F070E94810781330D
:1017A00009F008C28BE090E09093CC038093CB03C8
:1017B0008091CB039091CC030297A9F50E94BC06BF
:1017C00060E080E00E94C70666ED71E08AE794E081
:1017D0000E947F0761E080E00E94C70667EE71E02B
:1017E0008AE794E00E947F0762E08CEF0E94C706C0
:1017F00063EF71E08AE794E00E947F0763E08CEF7B
:101800000E94C7066AEC71E08AE794E00E947F07B5
:101810000E948107813309F0DAC10E94BC069092D0
:10182000CC038092CB038091CB039091CC030397A0
:1018300009F08AC00E94BC0660E080E00E94C706F2
:101840006EEF71E08AE794E00E947F0761E080E03C
:101850000E94C7066FE072E08AE794E00E947F076B
:1018600062E08CEF0E94C70660E272E08AE794E0D3
:101870000E947F0763E08CEF0E94C70660E372E07E
:101880008AE794E00E947F0760ED77E080E090E0D7
:101890000E9483040E94BC0660E080E00E94C706AC
:1018A00067E372E08AE794E00E947F0761E080E0EE
:1018B0000E94C70664E472E08AE794E00E947F0712
:1018C00062E08CEF0E94C70665E572E08AE794E06B
:1018D0000E947F0763E08CEF0E94C70664E672E017
:1018E0008AE794E00E947F0760ED77E080E090E077
:1018F0000E9483040E94BC0660E080E00E94C7064C
:1019000065E772E08AE794E00E947F0761E080E08B
:101910000E94C70666E872E08AE794E00E947F07AB
:1019200063E08CEF0E94C70667E972E08AE794E003
:101930000E947F0768EB7BE080E090E00E948304D8
:101940001092CC031092CB038091CB039091CC03E7
:101950000B97A9F50E94BC0660E080E00E94C706D4
:1019600061EA72E08AE794E00E947F0761E080E02C
:101970000E94C70662EB72E08AE794E00E947F074C
:1019800062E08CEF0E94C7066EEB72E08AE794E09B
:101990000E947F0763E08CEF0E94C7066AEC71E04B
:1019A0008AE794E00E947F070E948107813309F053
:1019B0001FC18FE690E09093CC038093CB0380917E
:1019C000CB039091CC030C9799F50E94BC0660E084
:1019D00080E00E94C7066AEC72E08AE794E00E9409
:1019E0007F0761E080E00E94C70662EB72E08AE751
:1019F00094E00E947F0762E08CEF0E94C7066EEBC6
:101A000072E08AE794E00E947F0763E08CEF0E9417
:101A1000C7066AEC71E08AE794E00E947F070E94A3
:101A20008107813309F0EFC0B092CC03A092CB03C1
:101A30008091CB039091CC03459709F0A8C00E94F8
:101A4000F50289838EE00E944C049093CA03809330
:101A5000C9038FE00E944C049093C8038093C7038E
:101A600081E10E944C04BC01990F880B990B0E94E4
:101A7000300F20E030E040E85AE30E94E50F20E01C
:101A800030E04AEF53E40E94E50F6093C303709384
:101A9000C4038093C5039093C60368EC70E080E0B4
:101AA00090E00E94830460E080E00E94C7066BED36
:101AB00072E08AE794E00E947F078091C9039091C9
:101AC000CA030E9456076DE172E08AE794E00E9423
:101AD0007F0761E080E00E94C70661EE72E08AE75E
:101AE00094E00E947F078091C7039091C8030E94F1
:101AF00056076DE172E08AE794E00E947F0762E09A
:101B00008CEF0E94C7066BEE72E08AE794E00E94B9
:101B10007F07C090C303D090C403E090C503F0904A
:101B2000C603A7019601C701B6010E94521062EFD9
:101B300072E081111BC026013701E89477F82FEF7E
:101B40003FEF4FE75FE7C301B2010E9452108111DE
:101B50006BC02FEF3FEF4FE75FE7C301B2010E9479
:101B6000FA0E18160CF060C066EF72E08AE794E097
:101B70000E9401076EEF72E08AE794E00E947F07FF
:101B80009981992321F01093CC030093CB0380E03B
:101B900090E0892B09F48FCD0E948B01882309F4F2
:101BA00084CD0E94000081CD833309F0C6CD83E04F
:101BB00090E0B7CD823319F48CE090E0F5CD80331E
:101BC00009F0F6CD1092CC031092CB03F1CD823305
:101BD00039F486E190E09093CC038093CB0323CE3D
:101BE000803309F020CE1092CC031092CB031BCE91
:101BF000823319F480E790E0DECE803309F0DFCE47
:101C000081E090E0D8CE823329F43092CC03209248
:101C1000CB030ECF803309F00BCF81E090E090939F
:101C2000CC038093CB0304CF2FEF3FEF4FE75FE46C
:101C3000C701B6010E94E00F18161CF46AEF72E0AB
:101C400095CF2FEF3FEF4FE75FECC701B6010E9442
:101C5000FA0E87FDF3CF20E030E0A901C701B601FD
:101C60000E94FA0E87FF0AC041E06DE28AE794E025
:101C70000E94A506F7FAF094F7F8F0942AE037ED01
:101C800043EA5BE3C701B6010E948E0E2B013C01C3
:101C90000E94FF0E6B017C010E942E0F9B01AC0184
:101CA000C301B2010E948D0E2B013C014AE0C70125
:101CB000B6010E94100741E06EE28AE794E00E94BC
:101CC000A50620E030E040E251E4C301B2010E94E9
:101CD000E50F2B013C010E94FF0E6B01F12CE12C62
:101CE0004AE0C701B6010E941007C701B6010E9471
:101CF0002E0F9B01AC01C301B2010E948D0E20E0AA
:101D000030E040E251E40E94E50F0E94FF0E90E0B7
:101D100080E04AE00E9410072DCF5058BB27AA2729
:101D20000E94A50E0C94A60F0E94980F38F00E94F6
:101D30009F0F20F039F49F3F19F426F40C94950F6F
:101D40000EF4E095E7FB0C948F0FE92F0E94B70F7C
:101D500058F3BA17620773078407950720F079F4E0
:101D6000A6F50C94D90F0EF4E0950B2EBA2FA02DEA
:101D70000B01B90190010C01CA01A0011124FF2738
:101D8000591B99F0593F50F4503E68F11A16F04033
:101D9000A22F232F342F4427585FF3CF4695379532
:101DA0002795A795F0405395C9F77EF41F16BA0BF7
:101DB000620B730B840BBAF09150A1F0FF0FBB1FA5
:101DC000661F771F881FC2F70EC0BA0F621F731FEE
:101DD000841F48F4879577956795B795F7959E3F4B
:101DE00008F0B0CF9395880F08F09927EE0F9795DC
:101DF000879508950E946B0F08F481E008950E9472
:101E0000BF0F88F09F5798F0B92F9927B751B0F0BE
:101E1000E1F0660F771F881F991F1AF0BA95C9F76E
:101E200014C0B13091F00E94D90FB1E008950C9424
:101E3000D90F672F782F8827B85F39F0B93FCCF3D7
:101E4000869577956795B395D9F73EF490958095EB
:101E5000709561957F4F8F4F9F4F0895E89409C00B
:101E600097FB3EF490958095709561957F4F8F4FCD
:101E70009F4F9923A9F0F92F96E9BB279395F695E3
:101E8000879577956795B795F111F8CFFAF4BB0F61
:101E900011F460FF1BC06F5F7F4F8F4F9F4F16C0C5
:101EA000882311F096E911C0772321F09EE8872F4F
:101EB000762F05C0662371F096E8862F70E060E00B
:101EC0002AF09A95660F771F881FDAF7880F969584
:101ED000879597F90895990F0008550FAA0BE0E828
:101EE000FEEF16161706E807F907C0F012161306DC
:101EF000E407F50798F0621B730B840B950B39F41C
:101F00000A2661F0232B242B252B21F408950A2681
:101F100009F4A140A6958FEF811D811D089597F9C1
:101F20009F6780E870E060E008959FEF80EC08957F
:101F300000240A94161617061806090608950024A8
:101F40000A9412161306140605060895092E039422
:101F5000000C11F4882352F0BB0F40F4BF2B11F496
:101F600060FF04C06F5F7F4F8F4F9F4F089557FDF5
:101F70009058440F551F59F05F3F71F04795880FF7
:101F800097FB991F61F09F3F79F08795089512168E
:101F900013061406551FF2CF4695F1DF08C016163A
:101FA00017061806991FF1CF8695710561050894EB
:101FB0000895E894BB2766277727CB0197F9089502
:101FC0000E946B0F08F48FEF08950E94F80F0C9495
:101FD000A60F0E94980F38F00E949F0F20F09523C3
:101FE00011F00C948F0F0C94950F11240C94DA0FB0
:101FF0000E94B70F70F3959FC1F3950F50E0551FE6
:10200000629FF001729FBB27F00DB11D639FAA274D
:10201000F00DB11DAA1F649F6627B00DA11D661F9C
:10202000829F2227B00DA11D621F739FB00DA11DBD
:10203000621F839FA00D611D221F749F3327A00D77
:10204000611D231F849F600D211D822F762F6A2F13
:1020500011249F5750409AF0F1F088234AF0EE0F78
:10206000FF1FBB1F661F771F881F91505040A9F7A5
:102070009E3F510580F00C948F0F0C94DA0F5F3F58
:10208000E4F3983ED4F3869577956795B795F795E1
:10209000E7959F5FC1F7FE2B880F911D9695879559
:1020A00097F908950E946B0F880B990B0895A1E290
:1020B0001A2EAA1BBB1BFD010DC0AA1FBB1FEE1FC2
:1020C000FF1FA217B307E407F50720F0A21BB30B0D
:1020D000E40BF50B661F771F881F991F1A9469F789
:1020E00060957095809590959B01AC01BD01CF01E5
:1020F0000895EE0FFF1F0590F491E02D0994F894D8
:10210000FFCF000040001400540000000000C10197
:1021100021014E010E027F015D01710100000000EE
:102120007205450589061B053E052B051C050000AB
:102130000000FB0621018906880600000000F1026C
:10214000B102800205040302090807063132334157
:1021500034353642373839432A3023445465636C6A
:10216000612050756C736164613A20000D0A002093
:102170005B204D61696E204D656E75205D202000ED
:102180003129204D656E7520506C616E746173004D
:1021900032292054657374003329204163657263CA
:1021A00061206465005B204D656E7520506C616E2A
:1021B000746173205D00312920546F6D6174650076
:1021C000322920457370696E6163610030292052A5
:1021D0006567726573617200205B20204D656E75C6
:1021E0002074657374205D200031292053656E735F
:1021F0006F7265730032292053616C6964617300EA
:10220000202020536F6E6E576173736572202020FB
:10221000002020436F6D616E20766572676120201B
:1022200020005475206D616D612073657261206DB1
:10223000690073756567726100496E7465677261E4
:102240006E7465733A0043617262616C6C6F204218
:1022500020456477696E004A757261646F20502072
:102260004A6573757300416261726361205A20454B
:102270006E72697175650054656C6C657A204320D7
:102280005269636172646F00526F64726967756549
:102290007A204D204761656C0059207475206D616E
:1022A0006D6100205B204D656E7520546F6D61740B
:1022B00065205D00312920446574616C6C65730094
:1022C000322920496E696369617221005B4D656E38
:1022D0007520457370696E6163615D20004C757A8D
:1022E0003A200048756D656461643A200054656D5C
:1022F000703A20006E616E00696E66006F7666004F
:062300002A43202000002A
:107E0000112484B714BE81FFF0D085E080938100F7
:107E100082E08093C00088E18093C10086E0809377
:107E2000C20080E18093C4008EE0C9D0259A86E02C
:107E300020E33CEF91E0309385002093840096BBD3
:107E4000B09BFECF1D9AA8958150A9F7CC24DD24C4
:107E500088248394B5E0AB2EA1E19A2EF3E0BF2EE7
:107E6000A2D0813461F49FD0082FAFD0023811F036
:107E7000013811F484E001C083E08DD089C08234E0
:107E800011F484E103C0853419F485E0A6D080C0E4
:107E9000853579F488D0E82EFF2485D0082F10E0AE
:107EA000102F00270E291F29000F111F8ED06801E7
:107EB0006FC0863521F484E090D080E0DECF843638
:107EC00009F040C070D06FD0082F6DD080E0C81688
:107ED00080E7D80618F4F601B7BEE895C0E0D1E017
:107EE00062D089930C17E1F7F0E0CF16F0E7DF06D8
:107EF00018F0F601B7BEE89568D007B600FCFDCFD4
:107F0000A601A0E0B1E02C9130E011968C91119780
:107F100090E0982F8827822B932B1296FA010C0160
:107F200087BEE89511244E5F5F4FF1E0A038BF0790
:107F300051F7F601A7BEE89507B600FCFDCF97BE46
:107F4000E89526C08437B1F42ED02DD0F82E2BD052
:107F50003CD0F601EF2C8F010F5F1F4F84911BD097
:107F6000EA94F801C1F70894C11CD11CFA94CF0C13
:107F7000D11C0EC0853739F428D08EE10CD085E9AC
:107F80000AD08FE07ACF813511F488E018D01DD067
:107F900080E101D065CF982F8091C00085FFFCCF94
:107FA0009093C60008958091C00087FFFCCF809118
:107FB000C00084FD01C0A8958091C6000895E0E648
:107FC000F0E098E1908380830895EDDF803219F02E
:107FD00088E0F5DFFFCF84E1DECF1F93182FE3DFCA
:107FE0001150E9F7F2DF1F91089580E0E8DFEE27F6
:047FF000FF270994CA
:027FFE00040479
:00000001FF
